:020000040800F2
:100000007806002089010008890D00088B0A000885
:10001000850D000879020008911500080000000015
:10002000000000000000000000000000190F0008A0
:1000300059090008000000001D0E000815110008F5
:10004000A3010008A3010008A3010008A301000800
:10005000A3010008A3010008A3010008A3010008F0
:10006000A3010008A3010008A3010008A3010008E0
:10007000A3010008A3010008A3010008A3010008D0
:10008000A3010008A3010008A3010008A3010008C0
:1000900039150008A3010008A3010008A301000806
:1000A000A3010008A3010008A3010008A3010008A0
:1000B00079110008C5110008A3010008A301000878
:1000C000A3010008A3010008A3010008A301000880
:1000D000A3010008A3010008A3010008A301000870
:1000E000A3010008A3010008A301000800F002F822
:1000F00000F03AF80AA090E8000C82448344AAF188
:100100000107DA4501D100F02FF8AFF2090EBAE885
:100110000F0013F0010F18BFFB1A43F0010318473B
:100120005415000074150000103A24BF78C878C137
:10013000FAD8520724BF30C830C144BF04680C60ED
:10014000704700000023002400250026103A28BF35
:1001500078C1FBD8520728BF30C148BF0B60704739
:100160001FB51FBD10B510BD00F031F81146FFF7E7
:10017000F7FF01F04BFA00F04FF803B4FFF7F2FF7E
:1001800003BC00F057F800000948804709480047C1
:10019000FEE7FEE7FEE7FEE7FEE7FEE7FEE7FEE737
:1001A000FEE7FEE704480549054A064B7047000094
:1001B00019110008ED0000087800002078060020E2
:1001C000780200207802002070477047704775461B
:1001D00000F02CF8AE4605006946534620F00700B3
:1001E000854618B020B5FFF7DDFFBDE820404FF091
:1001F00000064FF000074FF000084FF0000B21F011
:100200000701AC46ACE8C009ACE8C009ACE8C009DD
:10021000ACE8C0098D46704710B50446AFF30080C6
:100220002046BDE81040FFF7A8BF00000048704717
:100230001400002001491820ABBEFEE72600020092
:100240007047000008B50121102000F009FE0120D0
:10025000ADF8000003208DF8020010208DF8030097
:100260006946044800F079FB0121024800F009FCCE
:1002700008BD00000010014000BFFEE721B10129C8
:1002800007D002290FD109E0826842F08002826023
:100290000AE0826842F40042826005E0826842F42B
:1002A0000002826000E000BF00BF70471FB51E481B
:1002B00000F03CF801A800F02EFA00F0FFF8012150
:1002C000480600F0ADFD00208DF80A008DF80B0007
:1002D0008DF80C008DF80D008DF80E008DF80F00D4
:1002E0008DF806008DF8070005208DF80800002025
:1002F0008DF809000920ADF8040001A90A4800F0B2
:1003000008F914208DF8000000208DF80100052068
:100310008DF8020001208DF80300684600F03CFDD6
:1003200000F0A4F81FBD00000064004010B50446B2
:100330000B48844209D10121480600F081FD0021CB
:100340004FF0007000F07CFD08E00121880600F00D
:1003500077FD00214FF0806000F072FD10BD0000BD
:100360000064004010B50021837A012202FA03F1F3
:100370003D4A126842F001023B4B1A603A4A1C3275
:1003800012688A43384B1C331A60027BCAB9364A5A
:100390000C3212688A43344B0C331A604288C3888B
:1003A00042EA0343304A4032847A42F834300288C9
:1003B000838842EA03432C4A4032847A02EBC40227
:1003C0005360027B012A19D1274A0C3212680A4372
:1003D000254B0C331A604288038842EA0343224AC1
:1003E0004032847A42F83430C288838842EA034338
:1003F0001D4A4032847A02EBC4025360C27A3AB991
:10040000194A121D12688A43174B1B1D1A6006E019
:10041000154A121D12680A43134B1B1D1A600289EC
:1004200032B9114A143212688A430F4B14331A60DE
:100430000289012A06D10C4A143212680A430A4B77
:1004400014331A60427B012A06D1074A1C32126813
:100450000A43054B1C331A60034A126822F001025A
:10046000014B1A6010BD0000006600401FB500205F
:100470008DF80A008DF80B0001208DF80C00E020AB
:10048000ADF800000020ADF802004EF6FF70ADF8A8
:1004900004004FF6FF70ADF806000020ADF808002C
:1004A00001208DF80D006846FFF75CFF0122022154
:1004B000014800F025F81FBD0064004008B5012187
:1004C000042000F0CDFC4FF48050ADF80000032074
:1004D0008DF8020018208DF803006946074800F0E7
:1004E0003CFA4FF40060ADF8000048208DF803009E
:1004F0006946024800F031FA08BD000000080140DA
:100500001AB143690B43436102E043698B43436182
:10051000704730B5024600200023146824F002041E
:100520001460146844F00104146000E05B1C54681B
:1005300004F001041CB94FF6FF74A342F6D15468CD
:1005400004F001040CB900206CE08C79012C04D17A
:10055000146844F08004146003E0146824F08004FC
:100560001460CC79012C04D1146844F04004146068
:1005700003E0146824F0400414600C7A012C04D1C8
:10058000146844F02004146003E0146824F020048C
:1005900014604C7A012C04D1146844F010041460E7
:1005A00003E0146824F0100414608C7A012C04D148
:1005B000146844F00804146003E0146824F008048C
:1005C0001460CC7A012C04D1146844F00404146043
:1005D00003E0146824F0040414608C78A407CD7838
:1005E00044EA05640D7944EA05444D7944EA05542A
:1005F0000D886D1E2C43D461146824F0010414602E
:10060000002300E05B1C546804F001041CB14FF6A9
:10061000FF74A342F6D1546804F001040CB1002029
:1006200000E0012030BD10B500F5D87303EB0113D5
:100630001B6803F004031372137A53B900F5D873DF
:1006400003EB01131B6840F2FF7404EA5353136079
:1006500009E000F5D87303EB01131B686FF06044E9
:1006600004EAD303536000F5D87303EB01131B684E
:1006700003F00203537200F5D87303EB01135B68B8
:1006800003F00F03937200F5D87303EB01135B685B
:100690001B0AD37400F5D87303EB01139B68D37264
:1006A00000F5D87303EB01139B681C0A147300F563
:1006B000D87303EB01139B681C0C547300F5D873BB
:1006C00003EB01139B681B0E937300F5D87303EBC8
:1006D0000113DB68D37300F5D87303EB0113DB68F8
:1006E0001C0A147400F5D87303EB0113DB681C0CAF
:1006F000547400F5D87303EB0113DB681B0E93747D
:1007000021B9C36843F02003C36003E0036943F0E9
:100710002003036110BD00218171C171017241721A
:100720008172C1728170C170032101710221417116
:1007300001210180704710B502460020936803F044
:100740008063B3F1806F00D110E0936803F0006321
:10075000B3F1006F01D1012008E0936803F08053EA
:10076000B3F1805F01D1022000E00420042874D09E
:1007700002F5C07303EB00131B6803F0010402F5DC
:10078000C07303EB00131C600B7A7BB94B7A0C88A7
:1007900043EA445302F5C07404EB00142468234375
:1007A00002F5C07404EB0014236010E00B7A4C686F
:1007B00043EAC4034C7A234302F5C07404EB0014EB
:1007C0002468234302F5C07404EB001423608B7A81
:1007D00003F00F038B7202F5C07303EB00135B6829
:1007E00023F00F0402F5C07303EB00135C6002F505
:1007F000C07303EB00135B688C7A234302F5C0746B
:1008000004EB001463608B7B1C064B7B44EA0344BF
:100810000B7B44EA0323CC7A234302F5C07404EB38
:100820000014A3608B7C1C064B7C44EA03440B7CC5
:1008300044EA0323CC7B234302F5C07404EB001489
:10084000E36002F5C07303EB00131B6843F001047F
:1008500002F5C07303EB00131C6010BD10B5024617
:10086000002321B1012907D002290FD109E09068A6
:100870001D4C00EA04030BE090681C4C00EA0403E2
:1008800006E090681A4C00EA040301E0002300BF70
:1008900000BF184C181BA34216D007DC83B16FF0C1
:1008A0008060184470B1022818D111E0B0F5007FC3
:1008B00010D0114C204448B1B0F5003F0ED10BE0F0
:1008C00002230DE000230BE0002309E0002307E0F2
:1008D000012305E0012303E0012301E0002300BF21
:1008E00000BFD8B210BD00000300000400030008E0
:1008F00000000310000100080001FFF770B5044676
:100900000D4607200B490870022048700846847085
:1009100015B90120C87002E002200649C870042100
:10092000044800F009F8034908710521014800F066
:10093000F5FA70BD0800002010B502460B460020F5
:10094000002104E0545C0444E0B24C1CE1B2994242
:10095000F8DBC0F1FF0010BD70472DE9F041024601
:1009600000250026002000230024002791F803C062
:100970000CF00F0591F803C00CF0100CBCF1000F47
:1009800003D091F802C04CEA050591F800C0BCF113
:10099000000F31D0146800202BE04FF0010C0CFA4E
:1009A00000F3B1F800C00CEA03069E4220D1830098
:1009B0004FF00F0C0CFA03F7BC4305FA03FC4CEAAA
:1009C000040491F803C0BCF1280F06D14FF0010CCC
:1009D0000CFA00FCC2F814C00AE091F803C0BCF1A4
:1009E000480F05D14FF0010C0CFA00FCC2F810C002
:1009F000401C0828D1D31460B1F800C0BCF1FF0F2F
:100A000034DD546800202EE000F1080C4FF001089E
:100A100008FA0CF3B1F800C00CEA03069E4221D19B
:100A200083004FF00F0C0CFA03F7BC4305FA03FCEC
:100A30004CEA040491F803C0BCF1280F05D100F181
:100A4000080C08FA0CF8C2F8148091F803C0BCF145
:100A5000480F07D100F1080C4FF0010808FA0CF814
:100A6000C2F81080401C0828CED35460BDE8F08145
:100A70000246002093680B400BB1012000E00020EB
:100A80007047416170470161704700BFFEE7000099
:100A900010B5FF210D48FFF7F4FF40F603410C4865
:100AA000FFF7EFFF3C210B48FFF7EBFF4FF47871A6
:100AB0000748FFF7E6FF4FF47C410648FFF7E1FFE8
:100AC00004210548FFF7DDFF10BD000000080140CC
:100AD000000C0140001001400014014008B5012144
:100AE0003C2000F0BDF9FF20ADF8000003208DF898
:100AF000020010208DF8030069463148FFF72DFFF2
:100B000040F60340ADF8000003208DF802001020ED
:100B10008DF8030069462B48FFF71FFF3C20ADF816
:100B2000000003208DF8020010208DF803006946B4
:100B30002548FFF712FFFF212148FFF7A4FF40F6E9
:100B400003412048FFF79FFF3C211F48FFF79BFF11
:100B50004FF47870ADF8000003208DF802001020EB
:100B60008DF8030069461748FFF7F7FE4FF47C4005
:100B7000ADF8000003208DF8020010208DF803006E
:100B800069461148FFF7E9FE0420ADF80000032094
:100B90008DF8020010208DF8030069460B48FFF71E
:100BA000DCFE4FF478710748FFF76DFF4FF47C418E
:100BB0000548FFF768FF04210448FFF764FF08BDFC
:100BC00000080140000C01400010014000140140E9
:100BD00010B501211348FFF756FFC82000F0F8FCBC
:100BE00001211048FFF74DFFC82000F0F1FC012162
:100BF0000C48FFF748FFC82000F0EAFC0121094833
:100C0000FFF73FFFC82000F0E3FC01210548FFF794
:100C10003AFFC82000F0DCFC01210248FFF731FF59
:100C200010BD00000010014010B500242CE0601C35
:100C3000C4B2072023490870012048708870FF2043
:100C4000C87004211F48FFF777FE1E49087105216F
:100C50001C4800F063F900201B49087004201B4960
:100C6000087000BF194800780428FBD017480078A6
:100C7000032803D000201649087006E0032C03DB8C
:100C800001201349087000E0D1E700BF07200D499B
:100C9000087002204870012088700C4800780128F4
:100CA00001D1C87002E002200649C870042105483D
:100CB000FFF742FE034908710521024800F02EF9B2
:100CC00010BD0000080000200000002002000020ED
:100CD000010000208178012909D1C178FF2906D1BE
:100CE0000178072903D10121034A117002E0022192
:100CF000014A1170704700000200002010B54FF447
:100D000080511348FFF7B4FE044621460220FFF746
:100D1000F5FD4FF400510E48FFF7AAFE04462146A8
:100D20000320FFF7EBFD4FF480410948FFF7A0FED9
:100D3000044621460420FFF7E1FD02210548FFF7A4
:100D400097FE044621460520FFF7D8FD10BD0000A0
:100D5000000C01400010014010B507200849087040
:100D600003204870FF208870C87004210448FFF7F2
:100D7000E3FD034908710521014800F0CFF810BDDB
:100D80000800002000BFFEE7704710B54FF4A060D8
:100D900000F03AF810BD000070B5002100230F22CA
:100DA000C47804B3154C246804F4E064C4F5E0642A
:100DB000210AC1F10403CA40447804FA03F184789B
:100DC0001440214309010E4C0678A155047804F023
:100DD0001F050124AC4005786D11AD0005F1E0253B
:100DE000C5F8004109E0047804F01F050124AC4077
:100DF000044D0678761145F8264070BD0CED00E0F4
:100E000000E400E080E100E002490143024A116091
:100E1000704700000000FA050CED00E0704700008C
:100E200029B1064AD2690243044BDA6104E0034A5D
:100E3000D2698243014BDA61704700000010024022
:100E400029B1064A12690243044B1A6104E0034ABD
:100E500012698243014B1A61704700000010024082
:100E600029B1064A92690243044B9A6104E0034A9D
:100E700092698243014B9A61704700000010024062
:100E800029B1064AD2680243044BDA6004E0034AFF
:100E9000D2688243014BDA607047000000100240C4
:100EA0002DE9F04107460D46052D04D002201849D2
:100EB0000870BDE8F081174E002405E007F10B0033
:100EC000005D3055601CC4B2AC42F7DB0421114810
:100ED000FFF732FD0F490979884203D002200C49FF
:100EE0000870E6E70B484078012804D0022806D0B5
:100EF000032806D104E00748FFF7ECFE05E004E014
:100F000003E002200249087000BF00BF00BFD0E725
:100F1000020000200D000020704700002DE9F04382
:100F200085B006460D460024A0464FF08709CDF84F
:100F3000009000208DF808008DF80900082D0FDCC6
:100F4000002D0DDD8DF80A5000BF06E016F8011BDC
:100F50000DF10B000155601C84B2AC42F6DB02E0DF
:100F600000208DF80A0069460E48FFF7E4FB0746AB
:100F700001E0601C84B239460A48FFF76FFC012883
:100F800002D0B4F57A7FF4DBB4F57A7F05D1394627
:100F90000448FFF773F94FF00108404605B0BDE87B
:100FA000F08300000064004010B500F001F810BDAF
:100FB0000CB50020019000903348006840F4803068
:100FC0003149086000BF3048006800F400300090EC
:100FD0000198401C0190009818B90198B0F5A06FD5
:100FE000F1D12948006800F4003010B101200090D0
:100FF00001E0002000900098012843D123480068B8
:1010000040F01000214908600846006820F0030005
:1010100008600846006840F0020008601A4840680E
:10102000194948600846406848600846406840F4EE
:10103000806048600846406820F47C10486008469C
:10104000406840F4E81048600846006840F080704E
:10105000086000BF0C48006800F000700028F9D05C
:101060000948406820F00300074948600846406886
:1010700040F00200486000BF0348406800F00C00E8
:101080000828F9D10CBD00000010024000200240E9
:1010900008B501211820FFF7E3FE4FF4E040ADF85A
:1010A000000003208DF8020048208DF803006946F7
:1010B0000C48FFF752FC0220ADF8000003208DF829
:1010C000020048208DF8030069460748FFF745FCF9
:1010D0004FF4E0410348FFF7D6FC02210248FFF736
:1010E000D2FC08BD000C014000100140042808D1CA
:1010F0004FF0E021096941F004014FF0E022116155
:1011000007E04FF0E021096921F004014FF0E022EF
:10111000116170477047000010B51348006840F037
:1011200001001149086008464068104908400E490E
:101130004860084600680E4908400B4908600846A8
:10114000006820F4802008600846406820F4FE0013
:1011500048604FF41F008860FFF726FF4FF00060E3
:101160000449086010BD0000001002400000FFF8B4
:10117000FFFFF6FE08ED00E010B50121880700F042
:1011800039F928B10121880700F030F800F002F8A1
:1011900010BD00000948007804280DD108480078E7
:1011A000401C0749087008460078C82804DB002066
:1011B00008700320014908707047000002000020F9
:1011C0000000002010B50121054800F013F928B1F6
:1011D0000121034800F00AF800F004F810BD0000F7
:1011E000000400407047CA4302827047CA4302822B
:1011F000704721B1028842F00102028004E00288B7
:101200004FF6FE731A4002807047000010B5044686
:101210006848844208D10121C014FFF731FE002143
:10122000E014FFF72DFEC4E0B4F1804F08D1012196
:101230000846FFF705FE00210120FFF701FEB8E098
:101240005D48844208D101210220FFF7F9FD002109
:101250000220FFF7F5FDACE05848844208D1012197
:101260000420FFF7EDFD00210420FFF7E9FDA0E0D9
:101270005348844208D101210820FFF7E1FD0021F5
:101280000820FFF7DDFD94E04E48844208D101219B
:101290001020FFF7D5FD00211020FFF7D1FD88E0D9
:1012A0004948844208D101212020FFF7C9FD0021CF
:1012B0002020FFF7C5FD7CE04448844208D101218D
:1012C0004014FFF7DDFD00216014FFF7D9FD70E049
:1012D0003F48844209D10121C804FFF7D1FD002114
:1012E0004FF40020FFF7CCFD63E03A48844209D177
:1012F00001210805FFF7C4FD00214FF48010FFF71E
:10130000BFFD56E03448844209D101214805FFF76A
:10131000B7FD00214FF40010FFF7B2FD49E02F4860
:10132000844208D101214020FFF78AFD002140209E
:10133000FFF786FD3DE02A48844208D10121802044
:10134000FFF77EFD00218020FFF77AFD31E0254880
:10135000844208D101218015FFF772FD0021A015FC
:10136000FFF76EFD25E02048844209D101210804E1
:10137000FFF786FD00214FF48030FFF781FD18E074
:101380001A48844209D101214804FFF779FD002160
:101390004FF40030FFF774FD0BE01548844208D18C
:1013A00001218804FFF76CFD00214FF48020FFF736
:1013B00067FD10BD002C0140000400400008004003
:1013C000000C0040001000400014004000340140B8
:1013D000004C014000500140005401400018004002
:1013E000001C00400020004000400140004401403B
:1013F0000048014030B50246002000230024158A31
:1014000005EA0103958905EA010413B10CB1012035
:1014100000E0002030BD1AB183890B43838102E0D4
:1014200083898B4383817047002202881D4B984239
:101430000ED01D4B98420BD0B0F1804F08D01B4B03
:10144000984205D01A4B984202D01A4B984204D1C8
:101450004FF68F731A404B881A43174B984207D0A8
:10146000164B984204D04FF6FF431A40CB881A43DC
:1014700002808B8883850B8803850A4B98420BD0AA
:10148000094B984208D00E4B984205D00D4B98421C
:1014900002D00D4B984201D10B7A0386012383823F
:1014A00070470000002C014000340140000400405F
:1014B00000080040000C00400010004000140040F4
:1014C0000040014000440140004801401FB5012197
:1014D0000846FFF7A5FC4FF08040FFF797FE40F26B
:1014E000E730ADF808004720ADF804000020ADF863
:1014F0000A00ADF8060001A94FF08040FFF794FF05
:1015000001218807FFF76FFE012211469007FFF7C0
:1015100082FF1C208DF8000000208DF801000120C2
:101520008DF802008DF803006846FFF735FC0121B5
:101530008807FFF75EFE1FBD10B586B00020019042
:1015400002908DF80C008DF80E008DF81700002425
:1015500005E000210DF10F000155601CC4B2082CFC
:10156000F7DB01AA00210948FFF75DF89DF80C00A0
:1015700048B99DF80E00002804DD9DF80E1001A862
:10158000FFF78EFC00BF06B010BD000000640040F5
:1015900000BFFEE710B504466FF00400FFF7A6FD9C
:1015A000E11704EB5171C1F3C701074A11701046EE
:1015B000007800EB4001C1EBC0104FF6FF7101EA6B
:1015C000C0000249088010BD040000200600002071
:1015D00001460D4A12884A434FF0E0235A61002227
:1015E0009A6101221A6100BF4FF0E022106900F0F9
:1015F00001021AB100F48032002AF5D000224FF027
:10160000E0231A619A61704706000020FFF784FD0D
:10161000FFF7BBFB4820FFF7BDFFFFF739FDFEF7E3
:1016200011FEFFF75BFAFEF741FEFFF74FFF4FF4A5
:101630007A70FFF7CDFFFFF7F7FAFFF75FFBFFF7D1
:10164000C7FAFFF725FAFFF787FB0FE001210848EB
:10165000FFF719FA4FF47A70FFF7BAFF0121044837
:10166000FFF70FFA4FF47A70FFF7B2FFEEE70000D2
:101670000010014094160008000000201400000033
:1016800028010008A81600081400002064060000C5
:1016900044010008000000000000000000000000FD
:0816A000000000000000000042
:04000005080000ED02
:00000001FF
